{
  "contractName": "VotingSystem",
  "abi": [
    {
      "anonymous": false,
      "inputs": [
        {
          "indexed": false,
          "internalType": "uint256",
          "name": "proposalId",
          "type": "uint256"
        },
        {
          "indexed": false,
          "internalType": "address",
          "name": "creator",
          "type": "address"
        }
      ],
      "name": "ProposalCreated",
      "type": "event"
    },
    {
      "anonymous": false,
      "inputs": [
        {
          "indexed": false,
          "internalType": "address",
          "name": "voter",
          "type": "address"
        },
        {
          "indexed": false,
          "internalType": "uint256",
          "name": "proposalId",
          "type": "uint256"
        },
        {
          "indexed": false,
          "internalType": "bool",
          "name": "inFavor",
          "type": "bool"
        }
      ],
      "name": "VoteCast",
      "type": "event"
    },
    {
      "inputs": [
        {
          "internalType": "string",
          "name": "_description",
          "type": "string"
        },
        {
          "internalType": "uint256",
          "name": "_expiration",
          "type": "uint256"
        }
      ],
      "name": "createProposal",
      "outputs": [],
      "stateMutability": "nonpayable",
      "type": "function"
    },
    {
      "inputs": [
        {
          "internalType": "uint256",
          "name": "_proposalId",
          "type": "uint256"
        },
        {
          "internalType": "bool",
          "name": "_inFavor",
          "type": "bool"
        }
      ],
      "name": "vote",
      "outputs": [],
      "stateMutability": "nonpayable",
      "type": "function"
    },
    {
      "inputs": [
        {
          "internalType": "uint256",
          "name": "_proposalId",
          "type": "uint256"
        }
      ],
      "name": "isProposalActive",
      "outputs": [
        {
          "internalType": "bool",
          "name": "",
          "type": "bool"
        }
      ],
      "stateMutability": "view",
      "type": "function"
    },
    {
      "inputs": [
        {
          "internalType": "uint256",
          "name": "_proposalId",
          "type": "uint256"
        }
      ],
      "name": "getVoteCounts",
      "outputs": [
        {
          "internalType": "uint256",
          "name": "votesFor",
          "type": "uint256"
        },
        {
          "internalType": "uint256",
          "name": "votesAgainst",
          "type": "uint256"
        }
      ],
      "stateMutability": "view",
      "type": "function"
    },
    {
      "inputs": [
        {
          "internalType": "uint256",
          "name": "_proposalId",
          "type": "uint256"
        }
      ],
      "name": "getProposalDetails",
      "outputs": [
        {
          "internalType": "uint256",
          "name": "id",
          "type": "uint256"
        },
        {
          "internalType": "string",
          "name": "description",
          "type": "string"
        },
        {
          "internalType": "uint256",
          "name": "expiration",
          "type": "uint256"
        },
        {
          "internalType": "uint256",
          "name": "votesFor",
          "type": "uint256"
        },
        {
          "internalType": "uint256",
          "name": "votesAgainst",
          "type": "uint256"
        },
        {
          "internalType": "bool",
          "name": "isActive",
          "type": "bool"
        }
      ],
      "stateMutability": "view",
      "type": "function"
    },
    {
      "inputs": [],
      "name": "getAllProposalIDs",
      "outputs": [
        {
          "internalType": "uint256[]",
          "name": "",
          "type": "uint256[]"
        }
      ],
      "stateMutability": "view",
      "type": "function"
    },
    {
      "inputs": [
        {
          "internalType": "uint256",
          "name": "_proposalId",
          "type": "uint256"
        },
        {
          "internalType": "address",
          "name": "_user",
          "type": "address"
        }
      ],
      "name": "hasUserVoted",
      "outputs": [
        {
          "internalType": "bool",
          "name": "",
          "type": "bool"
        }
      ],
      "stateMutability": "view",
      "type": "function"
    }
  ],
  "bytecode": "0x608060405234801561000f575f80fd5b5061143e8061001d5f395ff3fe608060405234801561000f575f80fd5b506004361061007b575f3560e01c80638a241f4c116100595780638a241f4c14610100578063c9d27afe14610131578063dc296ae11461014d578063f030c6331461017d5761007b565b8063164b3d2f1461007f57806335facf78146100af5780633b4d01a7146100cb575b5f80fd5b6100996004803603810190610094919061097f565b61019b565b6040516100a691906109c4565b60405180910390f35b6100c960048036038101906100c49190610b19565b61021c565b005b6100e560048036038101906100e0919061097f565b610358565b6040516100f796959493929190610bfc565b60405180910390f35b61011a6004803603810190610115919061097f565b6104e6565b604051610128929190610c62565b60405180910390f35b61014b60048036038101906101469190610cb3565b61057d565b005b61016760048036038101906101629190610d4b565b6107d3565b60405161017491906109c4565b60405180910390f35b610185610897565b6040516101929190610e40565b60405180910390f35b5f8160015f8281526020019081526020015f206005015f9054906101000a900460ff166101fd576040517f08c379a00000000000000000000000000000000000000000000000000000000081526004016101f490610eaa565b60405180910390fd5b60015f8481526020019081526020015f20600201544210915050919050565b42811161025e576040517f08c379a000000000000000000000000000000000000000000000000000000000815260040161025590610f12565b60405180910390fd5b5f8081548092919061026f90610f5d565b91905055505f6040518060c001604052805f5481526020018481526020018381526020015f81526020015f81526020016001151581525090508060015f805481526020019081526020015f205f820151815f015560208201518160010190816102d8919061119e565b5060408201518160020155606082015181600301556080820151816004015560a0820151816005015f6101000a81548160ff0219169083151502179055509050507fcd423cc1203c0af96b9b3d68d73b3064a69de2d14450bb7181c5e5df2132b3585f543360405161034b92919061127c565b60405180910390a1505050565b5f60605f805f808660015f8281526020019081526020015f206005015f9054906101000a900460ff166103c0576040517f08c379a00000000000000000000000000000000000000000000000000000000081526004016103b790610eaa565b60405180910390fd5b5f60015f8a81526020019081526020015f206040518060c00160405290815f82015481526020016001820180546103f690610fd1565b80601f016020809104026020016040519081016040528092919081815260200182805461042290610fd1565b801561046d5780601f106104445761010080835404028352916020019161046d565b820191905f5260205f20905b81548152906001019060200180831161045057829003601f168201915b50505050508152602001600282015481526020016003820154815260200160048201548152602001600582015f9054906101000a900460ff1615151515815250509050805f0151975080602001519650806040015195508060600151945080608001519350806040015142109250505091939550919395565b5f808260015f8281526020019081526020015f206005015f9054906101000a900460ff16610549576040517f08c379a000000000000000000000000000000000000000000000000000000000815260040161054090610eaa565b60405180910390fd5b60015f8581526020019081526020015f2060030154925060015f8581526020019081526020015f2060040154915050915091565b8160015f8281526020019081526020015f206005015f9054906101000a900460ff166105de576040517f08c379a00000000000000000000000000000000000000000000000000000000081526004016105d590610eaa565b60405180910390fd5b8260015f8281526020019081526020015f20600201544210610635576040517f08c379a000000000000000000000000000000000000000000000000000000000815260040161062c906112ed565b60405180910390fd5b8360025f8281526020019081526020015f205f3373ffffffffffffffffffffffffffffffffffffffff1673ffffffffffffffffffffffffffffffffffffffff1681526020019081526020015f205f9054906101000a900460ff16156106cf576040517f08c379a00000000000000000000000000000000000000000000000000000000081526004016106c690611355565b60405180910390fd5b600160025f8781526020019081526020015f205f3373ffffffffffffffffffffffffffffffffffffffff1673ffffffffffffffffffffffffffffffffffffffff1681526020019081526020015f205f6101000a81548160ff02191690831515021790555083156107675760015f8681526020019081526020015f206003015f81548092919061075d90610f5d565b9190505550610791565b60015f8681526020019081526020015f206004015f81548092919061078b90610f5d565b91905055505b7fd356173ae8eeea8691aee4c1be712c314a975a3d43ebc48b08ca54d0dac912283386866040516107c493929190611373565b60405180910390a15050505050565b5f8260015f8281526020019081526020015f206005015f9054906101000a900460ff16610835576040517f08c379a000000000000000000000000000000000000000000000000000000000815260040161082c90610eaa565b60405180910390fd5b60025f8581526020019081526020015f205f8473ffffffffffffffffffffffffffffffffffffffff1673ffffffffffffffffffffffffffffffffffffffff1681526020019081526020015f205f9054906101000a900460ff1691505092915050565b60605f805467ffffffffffffffff8111156108b5576108b46109f5565b5b6040519080825280602002602001820160405280156108e35781602001602082028036833780820191505090505b5090505f600190505b5f54811161093357808260018361090391906113a8565b81518110610914576109136113db565b5b602002602001018181525050808061092b90610f5d565b9150506108ec565b508091505090565b5f604051905090565b5f80fd5b5f80fd5b5f819050919050565b61095e8161094c565b8114610968575f80fd5b50565b5f8135905061097981610955565b92915050565b5f6020828403121561099457610993610944565b5b5f6109a18482850161096b565b91505092915050565b5f8115159050919050565b6109be816109aa565b82525050565b5f6020820190506109d75f8301846109b5565b92915050565b5f80fd5b5f80fd5b5f601f19601f8301169050919050565b7f4e487b71000000000000000000000000000000000000000000000000000000005f52604160045260245ffd5b610a2b826109e5565b810181811067ffffffffffffffff82111715610a4a57610a496109f5565b5b80604052505050565b5f610a5c61093b565b9050610a688282610a22565b919050565b5f67ffffffffffffffff821115610a8757610a866109f5565b5b610a90826109e5565b9050602081019050919050565b828183375f83830152505050565b5f610abd610ab884610a6d565b610a53565b905082815260208101848484011115610ad957610ad86109e1565b5b610ae4848285610a9d565b509392505050565b5f82601f830112610b0057610aff6109dd565b5b8135610b10848260208601610aab565b91505092915050565b5f8060408385031215610b2f57610b2e610944565b5b5f83013567ffffffffffffffff811115610b4c57610b4b610948565b5b610b5885828601610aec565b9250506020610b698582860161096b565b9150509250929050565b610b7c8161094c565b82525050565b5f81519050919050565b5f82825260208201905092915050565b5f5b83811015610bb9578082015181840152602081019050610b9e565b5f8484015250505050565b5f610bce82610b82565b610bd88185610b8c565b9350610be8818560208601610b9c565b610bf1816109e5565b840191505092915050565b5f60c082019050610c0f5f830189610b73565b8181036020830152610c218188610bc4565b9050610c306040830187610b73565b610c3d6060830186610b73565b610c4a6080830185610b73565b610c5760a08301846109b5565b979650505050505050565b5f604082019050610c755f830185610b73565b610c826020830184610b73565b9392505050565b610c92816109aa565b8114610c9c575f80fd5b50565b5f81359050610cad81610c89565b92915050565b5f8060408385031215610cc957610cc8610944565b5b5f610cd68582860161096b565b9250506020610ce785828601610c9f565b9150509250929050565b5f73ffffffffffffffffffffffffffffffffffffffff82169050919050565b5f610d1a82610cf1565b9050919050565b610d2a81610d10565b8114610d34575f80fd5b50565b5f81359050610d4581610d21565b92915050565b5f8060408385031215610d6157610d60610944565b5b5f610d6e8582860161096b565b9250506020610d7f85828601610d37565b9150509250929050565b5f81519050919050565b5f82825260208201905092915050565b5f819050602082019050919050565b610dbb8161094c565b82525050565b5f610dcc8383610db2565b60208301905092915050565b5f602082019050919050565b5f610dee82610d89565b610df88185610d93565b9350610e0383610da3565b805f5b83811015610e33578151610e1a8882610dc1565b9750610e2583610dd8565b925050600181019050610e06565b5085935050505092915050565b5f6020820190508181035f830152610e588184610de4565b905092915050565b7f50726f706f73616c20646f6573206e6f742065786973740000000000000000005f82015250565b5f610e94601783610b8c565b9150610e9f82610e60565b602082019050919050565b5f6020820190508181035f830152610ec181610e88565b9050919050565b7f45787069726174696f6e206d75737420626520696e20746865206675747572655f82015250565b5f610efc602083610b8c565b9150610f0782610ec8565b602082019050919050565b5f6020820190508181035f830152610f2981610ef0565b9050919050565b7f4e487b71000000000000000000000000000000000000000000000000000000005f52601160045260245ffd5b5f610f678261094c565b91507fffffffffffffffffffffffffffffffffffffffffffffffffffffffffffffffff8203610f9957610f98610f30565b5b600182019050919050565b7f4e487b71000000000000000000000000000000000000000000000000000000005f52602260045260245ffd5b5f6002820490506001821680610fe857607f821691505b602082108103610ffb57610ffa610fa4565b5b50919050565b5f819050815f5260205f209050919050565b5f6020601f8301049050919050565b5f82821b905092915050565b5f6008830261105d7fffffffffffffffffffffffffffffffffffffffffffffffffffffffffffffffff82611022565b6110678683611022565b95508019841693508086168417925050509392505050565b5f819050919050565b5f6110a261109d6110988461094c565b61107f565b61094c565b9050919050565b5f819050919050565b6110bb83611088565b6110cf6110c7826110a9565b84845461102e565b825550505050565b5f90565b6110e36110d7565b6110ee8184846110b2565b505050565b5b81811015611111576111065f826110db565b6001810190506110f4565b5050565b601f8211156111565761112781611001565b61113084611013565b8101602085101561113f578190505b61115361114b85611013565b8301826110f3565b50505b505050565b5f82821c905092915050565b5f6111765f198460080261115b565b1980831691505092915050565b5f61118e8383611167565b9150826002028217905092915050565b6111a782610b82565b67ffffffffffffffff8111156111c0576111bf6109f5565b5b6111ca8254610fd1565b6111d5828285611115565b5f60209050601f831160018114611206575f84156111f4578287015190505b6111fe8582611183565b865550611265565b601f19841661121486611001565b5f5b8281101561123b57848901518255600182019150602085019450602081019050611216565b868310156112585784890151611254601f891682611167565b8355505b6001600288020188555050505b505050505050565b61127681610d10565b82525050565b5f60408201905061128f5f830185610b73565b61129c602083018461126d565b9392505050565b7f566f74696e6720706572696f64206861732065787069726564000000000000005f82015250565b5f6112d7601983610b8c565b91506112e2826112a3565b602082019050919050565b5f6020820190508181035f830152611304816112cb565b9050919050565b7f557365722068617320616c726561647920766f746564000000000000000000005f82015250565b5f61133f601683610b8c565b915061134a8261130b565b602082019050919050565b5f6020820190508181035f83015261136c81611333565b9050919050565b5f6060820190506113865f83018661126d565b6113936020830185610b73565b6113a060408301846109b5565b949350505050565b5f6113b28261094c565b91506113bd8361094c565b92508282039050818111156113d5576113d4610f30565b5b92915050565b7f4e487b71000000000000000000000000000000000000000000000000000000005f52603260045260245ffdfea264697066735822122010ed0dacfcc1cb58d18f86bedb95110b2258d15248ffc99c22dda5a57d9b373f64736f6c63430008150033",
  "immutableReferences": {},
  "source": "// SPDX-License-Identifier: MIT\r\npragma solidity ^0.8.0;\r\n\r\ncontract VotingSystem {\r\n    struct Proposal {\r\n        uint id;\r\n        string description;\r\n        uint expiration;\r\n        uint votesFor;\r\n        uint votesAgainst;\r\n        bool exists;\r\n    }\r\n\r\n    // Proposal ID counter\r\n    uint private proposalCount;\r\n\r\n    // Mapping to store proposals by their ID\r\n    mapping(uint => Proposal) private proposals;\r\n\r\n    // Mapping to track if a user has voted on a specific proposal (proposalId => (user address => hasVoted))\r\n    mapping(uint => mapping(address => bool)) private hasVoted;\r\n\r\n    // Event to be emitted when a new proposal is created\r\n    event ProposalCreated(uint proposalId, address creator);\r\n\r\n    // Event to be emitted when a vote is cast\r\n    event VoteCast(address voter, uint proposalId, bool inFavor);\r\n\r\n    // Modifier to check if a proposal exists\r\n    modifier proposalExists(uint _proposalId) {\r\n        require(proposals[_proposalId].exists, \"Proposal does not exist\");\r\n        _;\r\n    }\r\n\r\n    // Modifier to check if a proposal is active\r\n    modifier proposalIsActive(uint _proposalId) {\r\n        require(\r\n            block.timestamp < proposals[_proposalId].expiration,\r\n            \"Voting period has expired\"\r\n        );\r\n        _;\r\n    }\r\n\r\n    // Modifier to check if the user has not already voted on the proposal\r\n    modifier hasNotVoted(uint _proposalId) {\r\n        require(!hasVoted[_proposalId][msg.sender], \"User has already voted\");\r\n        _;\r\n    }\r\n\r\n    // Function to create a new proposal\r\n    function createProposal(\r\n        string memory _description,\r\n        uint _expiration\r\n    ) public {\r\n        require(\r\n            _expiration > block.timestamp,\r\n            \"Expiration must be in the future\"\r\n        );\r\n\r\n        proposalCount++;\r\n\r\n        Proposal memory newProposal = Proposal({\r\n            id: proposalCount,\r\n            description: _description,\r\n            expiration: _expiration,\r\n            votesFor: 0,\r\n            votesAgainst: 0,\r\n            exists: true\r\n        });\r\n\r\n        proposals[proposalCount] = newProposal;\r\n\r\n        emit ProposalCreated(proposalCount, msg.sender);\r\n    }\r\n\r\n    // Function to cast a vote on a proposal (true = for, false = against)\r\n    function vote(\r\n        uint _proposalId,\r\n        bool _inFavor\r\n    )\r\n        public\r\n        proposalExists(_proposalId)\r\n        proposalIsActive(_proposalId)\r\n        hasNotVoted(_proposalId)\r\n    {\r\n        hasVoted[_proposalId][msg.sender] = true;\r\n\r\n        if (_inFavor) {\r\n            proposals[_proposalId].votesFor++;\r\n        } else {\r\n            proposals[_proposalId].votesAgainst++;\r\n        }\r\n\r\n        emit VoteCast(msg.sender, _proposalId, _inFavor);\r\n    }\r\n\r\n    // Function to check if a proposal is active\r\n    function isProposalActive(\r\n        uint _proposalId\r\n    ) public view proposalExists(_proposalId) returns (bool) {\r\n        return block.timestamp < proposals[_proposalId].expiration;\r\n    }\r\n\r\n    // Function to get the current vote tally for a proposal\r\n    function getVoteCounts(\r\n        uint _proposalId\r\n    )\r\n        public\r\n        view\r\n        proposalExists(_proposalId)\r\n        returns (uint votesFor, uint votesAgainst)\r\n    {\r\n        votesFor = proposals[_proposalId].votesFor;\r\n        votesAgainst = proposals[_proposalId].votesAgainst;\r\n    }\r\n\r\n    // Function to retrieve proposal details by ID\r\n    function getProposalDetails(\r\n        uint _proposalId\r\n    )\r\n        public\r\n        view\r\n        proposalExists(_proposalId)\r\n        returns (\r\n            uint id,\r\n            string memory description,\r\n            uint expiration,\r\n            uint votesFor,\r\n            uint votesAgainst,\r\n            bool isActive\r\n        )\r\n    {\r\n        Proposal memory proposal = proposals[_proposalId];\r\n        id = proposal.id;\r\n        description = proposal.description;\r\n        expiration = proposal.expiration;\r\n        votesFor = proposal.votesFor;\r\n        votesAgainst = proposal.votesAgainst;\r\n        isActive = block.timestamp < proposal.expiration;\r\n    }\r\n\r\n    // Function to fetch all proposal IDs\r\n    function getAllProposalIDs() public view returns (uint[] memory) {\r\n        uint[] memory proposalIds = new uint[](proposalCount);\r\n        for (uint i = 1; i <= proposalCount; i++) {\r\n            proposalIds[i - 1] = i;\r\n        }\r\n        return proposalIds;\r\n    }\r\n\r\n    // Function to check if a user has voted on a particular proposal\r\n    function hasUserVoted(\r\n        uint _proposalId,\r\n        address _user\r\n    ) public view proposalExists(_proposalId) returns (bool) {\r\n        return hasVoted[_proposalId][_user];\r\n    }\r\n}\r\n",
  "sourcePath": "E:\\votingtest\\contracts\\VotingSystem.sol",
  "compiler": {
    "name": "solc",
    "version": "0.8.21+commit.d9974bed.Emscripten.clang"
  },
  "schemaVersion": "3.4.16",
  "updatedAt": "2024-09-26T08:42:00.542Z",
  "devdoc": {
    "kind": "dev",
    "methods": {},
    "version": 1
  },
  "userdoc": {
    "kind": "user",
    "methods": {},
    "version": 1
  }
}